{
  "contractName": "Rent",
  "abi": [
    {
      "constant": true,
      "inputs": [
        {
          "name": "",
          "type": "uint256"
        }
      ],
      "name": "apartments",
      "outputs": [
        {
          "components": [
            {
              "name": "addr",
              "type": "address"
            },
            {
              "name": "name",
              "type": "string"
            },
            {
              "name": "balance",
              "type": "uint256"
            }
          ],
          "name": "owner",
          "type": "tuple"
        },
        {
          "name": "name",
          "type": "string"
        },
        {
          "name": "street",
          "type": "string"
        },
        {
          "name": "zip",
          "type": "uint24"
        },
        {
          "name": "city",
          "type": "string"
        },
        {
          "name": "pricePerNight",
          "type": "uint128"
        },
        {
          "name": "deposit",
          "type": "uint128"
        }
      ],
      "payable": false,
      "stateMutability": "view",
      "type": "function"
    },
    {
      "anonymous": false,
      "inputs": [
        {
          "indexed": true,
          "name": "apartmentId",
          "type": "uint256"
        },
        {
          "components": [
            {
              "components": [
                {
                  "components": [
                    {
                      "name": "addr",
                      "type": "address"
                    },
                    {
                      "name": "name",
                      "type": "string"
                    },
                    {
                      "name": "balance",
                      "type": "uint256"
                    }
                  ],
                  "name": "owner",
                  "type": "tuple"
                },
                {
                  "name": "name",
                  "type": "string"
                },
                {
                  "name": "street",
                  "type": "string"
                },
                {
                  "name": "zip",
                  "type": "uint24"
                },
                {
                  "name": "city",
                  "type": "string"
                },
                {
                  "name": "pricePerNight",
                  "type": "uint128"
                },
                {
                  "name": "deposit",
                  "type": "uint128"
                }
              ],
              "name": "apartment",
              "type": "tuple"
            },
            {
              "components": [
                {
                  "name": "addr",
                  "type": "address"
                },
                {
                  "name": "name",
                  "type": "string"
                },
                {
                  "name": "balance",
                  "type": "uint256"
                }
              ],
              "name": "tenant",
              "type": "tuple"
            },
            {
              "name": "fromDay",
              "type": "uint16"
            },
            {
              "name": "tillDay",
              "type": "uint16"
            },
            {
              "name": "deposit",
              "type": "uint128"
            }
          ],
          "indexed": false,
          "name": "rental",
          "type": "tuple"
        }
      ],
      "name": "Rented",
      "type": "event"
    },
    {
      "anonymous": false,
      "inputs": [
        {
          "indexed": true,
          "name": "userAddress",
          "type": "address"
        },
        {
          "components": [
            {
              "name": "addr",
              "type": "address"
            },
            {
              "name": "name",
              "type": "string"
            },
            {
              "name": "balance",
              "type": "uint256"
            }
          ],
          "indexed": false,
          "name": "user",
          "type": "tuple"
        }
      ],
      "name": "Registered",
      "type": "event"
    },
    {
      "constant": true,
      "inputs": [],
      "name": "isRegistered",
      "outputs": [
        {
          "name": "",
          "type": "bool"
        }
      ],
      "payable": false,
      "stateMutability": "view",
      "type": "function"
    },
    {
      "constant": true,
      "inputs": [],
      "name": "getBalance",
      "outputs": [
        {
          "name": "",
          "type": "uint256"
        }
      ],
      "payable": false,
      "stateMutability": "view",
      "type": "function"
    },
    {
      "constant": true,
      "inputs": [],
      "name": "getApartmentsNum",
      "outputs": [
        {
          "name": "",
          "type": "uint256"
        }
      ],
      "payable": false,
      "stateMutability": "view",
      "type": "function"
    },
    {
      "constant": true,
      "inputs": [
        {
          "name": "apartmentId",
          "type": "uint256"
        }
      ],
      "name": "getRentalsNum",
      "outputs": [
        {
          "name": "",
          "type": "uint256"
        }
      ],
      "payable": false,
      "stateMutability": "view",
      "type": "function"
    },
    {
      "constant": false,
      "inputs": [
        {
          "name": "name",
          "type": "string"
        }
      ],
      "name": "register",
      "outputs": [],
      "payable": true,
      "stateMutability": "payable",
      "type": "function"
    },
    {
      "constant": false,
      "inputs": [
        {
          "name": "apartmentId",
          "type": "uint256"
        },
        {
          "name": "fromDay",
          "type": "uint16"
        },
        {
          "name": "tillDay",
          "type": "uint16"
        }
      ],
      "name": "rent",
      "outputs": [],
      "payable": true,
      "stateMutability": "payable",
      "type": "function"
    },
    {
      "constant": true,
      "inputs": [
        {
          "name": "apartmentIndex",
          "type": "uint256"
        },
        {
          "name": "fromDay",
          "type": "uint16"
        },
        {
          "name": "tillDay",
          "type": "uint16"
        }
      ],
      "name": "isAvailable",
      "outputs": [
        {
          "name": "",
          "type": "bool"
        }
      ],
      "payable": false,
      "stateMutability": "view",
      "type": "function"
    }
  ],
  "bytecode": "0x608060405234801561001057600080fd5b50611eb3806100206000396000f30060806040526004361061008e576000357c0100000000000000000000000000000000000000000000000000000000900463ffffffff16806312065fe014610093578063147daad3146100be578063223668441461011f57806353bb51641461014e578063abb8be171461018f578063cb8f5fe51461037b578063d24aeb37146103b7578063f2c298be146103e2575b600080fd5b34801561009f57600080fd5b506100a861043e565b6040518082815260200191505060405180910390f35b3480156100ca57600080fd5b5061010560048036038101908080359060200190929190803561ffff169060200190929190803561ffff16906020019092919050505061050d565b604051808215151515815260200191505060405180910390f35b34801561012b57600080fd5b50610134610be7565b604051808215151515815260200191505060405180910390f35b34801561015a57600080fd5b5061017960048036038101908080359060200190929190505050610c69565b6040518082815260200191505060405180910390f35b34801561019b57600080fd5b506101ba60048036038101908080359060200190929190505050610c89565b6040518088815260200180602001806020018762ffffff1662ffffff16815260200180602001866fffffffffffffffffffffffffffffffff166fffffffffffffffffffffffffffffffff168152602001856fffffffffffffffffffffffffffffffff166fffffffffffffffffffffffffffffffff16815260200184810384528a818151815260200191508051906020019080838360005b8381101561026c578082015181840152602081019050610251565b50505050905090810190601f1680156102995780820380516001836020036101000a031916815260200191505b50848103835289818151815260200191508051906020019080838360005b838110156102d25780820151818401526020810190506102b7565b50505050905090810190601f1680156102ff5780820380516001836020036101000a031916815260200191505b50848103825287818151815260200191508051906020019080838360005b8381101561033857808201518184015260208101905061031d565b50505050905090810190601f1680156103655780820380516001836020036101000a031916815260200191505b509a505050505050505050505060405180910390f35b6103b560048036038101908080359060200190929190803561ffff169060200190929190803561ffff169060200190929190505050610ff6565b005b3480156103c357600080fd5b506103cc611adc565b6040518082815260200191505060405180910390f35b61043c600480360381019080803590602001908201803590602001908080601f0160208091040260200160405190810160405280939291908181526020018383808284378201915050505050509192919290505050611ae9565b005b6000806000803373ffffffffffffffffffffffffffffffffffffffff1673ffffffffffffffffffffffffffffffffffffffff16815260200190815260200160002060000160009054906101000a900473ffffffffffffffffffffffffffffffffffffffff1673ffffffffffffffffffffffffffffffffffffffff16141515156104c657600080fd5b6000803373ffffffffffffffffffffffffffffffffffffffff1673ffffffffffffffffffffffffffffffffffffffff16815260200190815260200160002060020154905090565b600060606000808660018054905011151561052757600080fd5b60026000888152602001908152602001600020805480602002602001604051908101604052809291908181526020016000905b82821015610af757838290600052602060002090600c020160a060405190810160405290816000820160e0604051908101604052908160008201606060405190810160405290816000820160009054906101000a900473ffffffffffffffffffffffffffffffffffffffff1673ffffffffffffffffffffffffffffffffffffffff1673ffffffffffffffffffffffffffffffffffffffff168152602001600182018054600181600116156101000203166002900480601f01602080910402602001604051908101604052809291908181526020018280546001816001161561010002031660029004801561068f5780601f106106645761010080835404028352916020019161068f565b820191906000526020600020905b81548152906001019060200180831161067257829003601f168201915b505050505081526020016002820154815250508152602001600382018054600181600116156101000203166002900480601f01602080910402602001604051908101604052809291908181526020018280546001816001161561010002031660029004801561073f5780601f106107145761010080835404028352916020019161073f565b820191906000526020600020905b81548152906001019060200180831161072257829003601f168201915b50505050508152602001600482018054600181600116156101000203166002900480601f0160208091040260200160405190810160405280929190818152602001828054600181600116156101000203166002900480156107e15780601f106107b6576101008083540402835291602001916107e1565b820191906000526020600020905b8154815290600101906020018083116107c457829003601f168201915b505050505081526020016005820160009054906101000a900462ffffff1662ffffff1662ffffff168152602001600682018054600181600116156101000203166002900480601f0160208091040260200160405190810160405280929190818152602001828054600181600116156101000203166002900480156108a65780601f1061087b576101008083540402835291602001916108a6565b820191906000526020600020905b81548152906001019060200180831161088957829003601f168201915b505050505081526020016007820160009054906101000a90046fffffffffffffffffffffffffffffffff166fffffffffffffffffffffffffffffffff166fffffffffffffffffffffffffffffffff1681526020016007820160109054906101000a90046fffffffffffffffffffffffffffffffff166fffffffffffffffffffffffffffffffff166fffffffffffffffffffffffffffffffff1681525050815260200160088201606060405190810160405290816000820160009054906101000a900473ffffffffffffffffffffffffffffffffffffffff1673ffffffffffffffffffffffffffffffffffffffff1673ffffffffffffffffffffffffffffffffffffffff168152602001600182018054600181600116156101000203166002900480601f016020809104026020016040519081016040528092919081815260200182805460018160011615610100020316600290048015610a475780601f10610a1c57610100808354040283529160200191610a47565b820191906000526020600020905b815481529060010190602001808311610a2a57829003601f168201915b505050505081526020016002820154815250508152602001600b820160009054906101000a900461ffff1661ffff1661ffff168152602001600b820160029054906101000a900461ffff1661ffff1661ffff168152602001600b820160049054906101000a90046fffffffffffffffffffffffffffffffff166fffffffffffffffffffffffffffffffff166fffffffffffffffffffffffffffffffff16815250508152602001906001019061055a565b50505050925082519150600090505b81811015610bd8578561ffff168382815181101515610b2157fe5b906020019060200201516040015161ffff16108015610b6257508561ffff168382815181101515610b4e57fe5b906020019060200201516060015161ffff16115b80610bbd57508461ffff168382815181101515610b7b57fe5b906020019060200201516040015161ffff16108015610bbc57508461ffff168382815181101515610ba857fe5b906020019060200201516060015161ffff16115b5b15610bcb5760009350610bdd565b8080600101915050610b06565b600193505b5050509392505050565b6000806000803373ffffffffffffffffffffffffffffffffffffffff1673ffffffffffffffffffffffffffffffffffffffff16815260200190815260200160002060000160009054906101000a900473ffffffffffffffffffffffffffffffffffffffff1673ffffffffffffffffffffffffffffffffffffffff161415905090565b600060026000838152602001908152602001600020805490509050919050565b600181815481101515610c9857fe5b906000526020600020906008020160009150905080600001606060405190810160405290816000820160009054906101000a900473ffffffffffffffffffffffffffffffffffffffff1673ffffffffffffffffffffffffffffffffffffffff1673ffffffffffffffffffffffffffffffffffffffff168152602001600182018054600181600116156101000203166002900480601f016020809104026020016040519081016040528092919081815260200182805460018160011615610100020316600290048015610dab5780601f10610d8057610100808354040283529160200191610dab565b820191906000526020600020905b815481529060010190602001808311610d8e57829003601f168201915b5050505050815260200160028201548152505090806003018054600181600116156101000203166002900480601f016020809104026020016040519081016040528092919081815260200182805460018160011615610100020316600290048015610e575780601f10610e2c57610100808354040283529160200191610e57565b820191906000526020600020905b815481529060010190602001808311610e3a57829003601f168201915b505050505090806004018054600181600116156101000203166002900480601f016020809104026020016040519081016040528092919081815260200182805460018160011615610100020316600290048015610ef55780601f10610eca57610100808354040283529160200191610ef5565b820191906000526020600020905b815481529060010190602001808311610ed857829003601f168201915b5050505050908060050160009054906101000a900462ffffff1690806006018054600181600116156101000203166002900480601f016020809104026020016040519081016040528092919081815260200182805460018160011615610100020316600290048015610fa85780601f10610f7d57610100808354040283529160200191610fa8565b820191906000526020600020905b815481529060010190602001808311610f8b57829003601f168201915b5050505050908060070160009054906101000a90046fffffffffffffffffffffffffffffffff16908060070160109054906101000a90046fffffffffffffffffffffffffffffffff16905087565b600080611001611cad565b60008060003373ffffffffffffffffffffffffffffffffffffffff1673ffffffffffffffffffffffffffffffffffffffff16815260200190815260200160002060000160009054906101000a900473ffffffffffffffffffffffffffffffffffffffff1673ffffffffffffffffffffffffffffffffffffffff161415151561108857600080fd5b60003411156110e157346000803373ffffffffffffffffffffffffffffffffffffffff1673ffffffffffffffffffffffffffffffffffffffff168152602001908152602001600020600201600082825401925050819055505b8461ffff168461ffff161115156110f757600080fd5b61110286868661050d565b151561110d57600080fd5b60018681548110151561111c57fe5b9060005260206000209060080201925084840361ffff168360070160009054906101000a90046fffffffffffffffffffffffffffffffff16026fffffffffffffffffffffffffffffffff1691508260070160109054906101000a90046fffffffffffffffffffffffffffffffff166fffffffffffffffffffffffffffffffff1682016000803373ffffffffffffffffffffffffffffffffffffffff1673ffffffffffffffffffffffffffffffffffffffff168152602001908152602001600020600201541115156111ec57600080fd5b60a0604051908101604052808460e0604051908101604052908160008201606060405190810160405290816000820160009054906101000a900473ffffffffffffffffffffffffffffffffffffffff1673ffffffffffffffffffffffffffffffffffffffff1673ffffffffffffffffffffffffffffffffffffffff168152602001600182018054600181600116156101000203166002900480601f0160208091040260200160405190810160405280929190818152602001828054600181600116156101000203166002900480156113055780601f106112da57610100808354040283529160200191611305565b820191906000526020600020905b8154815290600101906020018083116112e857829003601f168201915b505050505081526020016002820154815250508152602001600382018054600181600116156101000203166002900480601f0160208091040260200160405190810160405280929190818152602001828054600181600116156101000203166002900480156113b55780601f1061138a576101008083540402835291602001916113b5565b820191906000526020600020905b81548152906001019060200180831161139857829003601f168201915b50505050508152602001600482018054600181600116156101000203166002900480601f0160208091040260200160405190810160405280929190818152602001828054600181600116156101000203166002900480156114575780601f1061142c57610100808354040283529160200191611457565b820191906000526020600020905b81548152906001019060200180831161143a57829003601f168201915b505050505081526020016005820160009054906101000a900462ffffff1662ffffff1662ffffff168152602001600682018054600181600116156101000203166002900480601f01602080910402602001604051908101604052809291908181526020018280546001816001161561010002031660029004801561151c5780601f106114f15761010080835404028352916020019161151c565b820191906000526020600020905b8154815290600101906020018083116114ff57829003601f168201915b505050505081526020016007820160009054906101000a90046fffffffffffffffffffffffffffffffff166fffffffffffffffffffffffffffffffff166fffffffffffffffffffffffffffffffff1681526020016007820160109054906101000a90046fffffffffffffffffffffffffffffffff166fffffffffffffffffffffffffffffffff166fffffffffffffffffffffffffffffffff168152505081526020016000803373ffffffffffffffffffffffffffffffffffffffff1673ffffffffffffffffffffffffffffffffffffffff168152602001908152602001600020606060405190810160405290816000820160009054906101000a900473ffffffffffffffffffffffffffffffffffffffff1673ffffffffffffffffffffffffffffffffffffffff1673ffffffffffffffffffffffffffffffffffffffff168152602001600182018054600181600116156101000203166002900480601f0160208091040260200160405190810160405280929190818152602001828054600181600116156101000203166002900480156116f75780601f106116cc576101008083540402835291602001916116f7565b820191906000526020600020905b8154815290600101906020018083116116da57829003601f168201915b5050505050815260200160028201548152505081526020018661ffff1681526020018561ffff1681526020018460070160109054906101000a90046fffffffffffffffffffffffffffffffff166fffffffffffffffffffffffffffffffff16815250905060026000878152602001908152602001600020819080600181540180825580915050906001820390600052602060002090600c02016000909192909190915060008201518160000160008201518160000160008201518160000160006101000a81548173ffffffffffffffffffffffffffffffffffffffff021916908373ffffffffffffffffffffffffffffffffffffffff160217905550602082015181600101908051906020019061180f929190611d04565b506040820151816002015550506020820151816003019080519060200190611838929190611d04565b506040820151816004019080519060200190611855929190611d04565b5060608201518160050160006101000a81548162ffffff021916908362ffffff1602179055506080820151816006019080519060200190611897929190611d04565b5060a08201518160070160006101000a8154816fffffffffffffffffffffffffffffffff02191690836fffffffffffffffffffffffffffffffff16021790555060c08201518160070160106101000a8154816fffffffffffffffffffffffffffffffff02191690836fffffffffffffffffffffffffffffffff160217905550505060208201518160080160008201518160000160006101000a81548173ffffffffffffffffffffffffffffffffffffffff021916908373ffffffffffffffffffffffffffffffffffffffff1602179055506020820151816001019080519060200190611984929190611d04565b50604082015181600201555050604082015181600b0160006101000a81548161ffff021916908361ffff160217905550606082015181600b0160026101000a81548161ffff021916908361ffff160217905550608082015181600b0160046101000a8154816fffffffffffffffffffffffffffffffff02191690836fffffffffffffffffffffffffffffffff1602179055505050508260070160109054906101000a90046fffffffffffffffffffffffffffffffff166fffffffffffffffffffffffffffffffff1682016000803373ffffffffffffffffffffffffffffffffffffffff1673ffffffffffffffffffffffffffffffffffffffff16815260200190815260200160002060020160008282540392505081905550857f3dec7dea75ea8884ae3b9406d30ba037737cae8de38632a88bfbf21fa5426964826040518082815260200191505060405180910390a2505050505050565b6000600180549050905090565b611af1611d84565b60008060003373ffffffffffffffffffffffffffffffffffffffff1673ffffffffffffffffffffffffffffffffffffffff16815260200190815260200160002060000160009054906101000a900473ffffffffffffffffffffffffffffffffffffffff1673ffffffffffffffffffffffffffffffffffffffff16141515611b7757600080fd5b6060604051908101604052803373ffffffffffffffffffffffffffffffffffffffff168152602001838152602001348152509050806000803373ffffffffffffffffffffffffffffffffffffffff1673ffffffffffffffffffffffffffffffffffffffff16815260200190815260200160002060008201518160000160006101000a81548173ffffffffffffffffffffffffffffffffffffffff021916908373ffffffffffffffffffffffffffffffffffffffff1602179055506020820151816001019080519060200190611c4d929190611d04565b50604082015181600201559050503373ffffffffffffffffffffffffffffffffffffffff167fbb07484fb8e2a2e319ea35f89216f0bb07a844cfe13d9e96f539b2ff29831db1826040518082815260200191505060405180910390a25050565b6101e060405190810160405280611cc2611dbc565b8152602001611ccf611e2a565b8152602001600061ffff168152602001600061ffff16815260200160006fffffffffffffffffffffffffffffffff1681525090565b828054600181600116156101000203166002900490600052602060002090601f016020900481019282601f10611d4557805160ff1916838001178555611d73565b82800160010185558215611d73579182015b82811115611d72578251825591602001919060010190611d57565b5b509050611d809190611e62565b5090565b606060405190810160405280600073ffffffffffffffffffffffffffffffffffffffff16815260200160608152602001600081525090565b61012060405190810160405280611dd1611e2a565b81526020016060815260200160608152602001600062ffffff1681526020016060815260200160006fffffffffffffffffffffffffffffffff16815260200160006fffffffffffffffffffffffffffffffff1681525090565b606060405190810160405280600073ffffffffffffffffffffffffffffffffffffffff16815260200160608152602001600081525090565b611e8491905b80821115611e80576000816000905550600101611e68565b5090565b905600a165627a7a72305820b67c21f8c7ce9af68c74839a4f09ca38f33a3a94592893a7f0475a923c7c98800029",
  "source": "pragma solidity ^0.4.22;\n\nimport \"./Library.sol\";\n\ncontract Rent {\n    struct User {\n        address addr;\n        string name;\n        uint balance;\n    }\n\n    struct Apartment {\n        User owner;\n\n        string name;\n        string street;\n        uint24 zip;\n        string city;\n\n        uint128 pricePerNight;\n        uint128 deposit;\n    }\n\n    struct Rental {\n        Apartment apartment;\n        User tenant;\n        uint16 fromDay; // Day as flat(unix timestamp / (60*60*24))\n        uint16 tillDay;\n        uint128 deposit;\n    }\n\n    mapping(address => User) users;\n\n    Apartment[] public apartments;\n\n    // Mapping of apartment id (index) to rentals\n    mapping(uint => Rental[]) rentals;\n\n    event Rented(uint indexed apartmentId, Rental rental);\n    event Registered(address indexed userAddress, User user);\n\n    function isRegistered() public view returns (bool) {\n        return users[msg.sender].addr != 0;\n    }\n\n    function getBalance() public view returns (uint) {\n        require(users[msg.sender].addr != 0);\n\n        return users[msg.sender].balance;\n    }\n\n    function getApartmentsNum() public view returns (uint) {\n        return apartments.length;\n    }\n\n    function getRentalsNum(uint apartmentId) public view returns (uint) {\n        return rentals[apartmentId].length;\n    }\n\n    function register(string name) public payable {\n        require(users[msg.sender].addr == 0);\n\n        User memory user = User(msg.sender, name, msg.value);\n\n        users[msg.sender] = user;\n\n        emit Registered(msg.sender, user);\n    }\n\n    function rent(uint apartmentId, uint16 fromDay, uint16 tillDay) public payable {\n        require(users[msg.sender].addr != 0);\n\n        if (msg.value > 0) {\n            users[msg.sender].balance += msg.value;\n        }\n\n        // Forbid same-day rentals and rentals that are mixed up (start day after end day)\n        require(tillDay > fromDay);\n\n        // Check if the apartment is occupied\n        require(isAvailable(apartmentId, fromDay, tillDay));\n\n        Apartment storage apartment = apartments[apartmentId];\n\n        // Calculate the fee from the pricePerNight\n        uint rentalFee = apartment.pricePerNight * (tillDay - fromDay);\n\n        // Check if the tenant has enough balance to pay for the apartment rental and the deposit\n        require(users[msg.sender].balance > rentalFee + apartment.deposit);\n\n        // Add a new rental\n        Rental memory rental = Rental(apartment, users[msg.sender], fromDay, tillDay, apartment.deposit);\n        rentals[apartmentId].push(rental);\n\n        // Reduce the tenant's balance by deposit and rental fee\n        users[msg.sender].balance -= rentalFee + apartment.deposit;\n\n        emit Rented(apartmentId, rental);\n    }\n\n    function isAvailable(uint apartmentIndex, uint16 fromDay, uint16 tillDay) public view returns (bool) {\n        require(apartments.length > apartmentIndex);\n\n        // TODO: Check if apartment was deleted\n\n        Rental[] memory apartmentRentals = rentals[apartmentIndex];\n\n        uint numRentals = apartmentRentals.length;\n\n        // Check all rentals for the apartment\n        for (uint i = 0; i < numRentals; i ++) {\n            if (\n            // Check if the rental ends in the requested period\n                apartmentRentals[i].fromDay < fromDay && apartmentRentals[i].tillDay > fromDay ||\n\n                // Check if the rental starts in the requested period\n                apartmentRentals[i].fromDay < tillDay && apartmentRentals[i].tillDay > tillDay\n            ) {\n                return false;\n            }\n        }\n\n        return true;\n    }\n}\n",
  "sourcePath": "/Users/denniswestphal/rental/contracts/Rent.sol",
  "compiler": {
    "name": "solc",
    "version": "0.4.23+commit.124ca40d.Emscripten.clang"
  },
  "schemaVersion": "2.0.0",
  "updatedAt": "2018-06-05T15:59:35.418Z"
}