{
  "contractName": "Rent",
  "abi": [
    {
      "constant": true,
      "inputs": [
        {
          "name": "",
          "type": "uint256"
        }
      ],
      "name": "apartments",
      "outputs": [
        {
          "components": [
            {
              "name": "addr",
              "type": "address"
            },
            {
              "name": "name",
              "type": "string"
            },
            {
              "name": "balance",
              "type": "uint256"
            }
          ],
          "name": "owner",
          "type": "tuple"
        },
        {
          "name": "name",
          "type": "string"
        },
        {
          "name": "street",
          "type": "string"
        },
        {
          "name": "zip",
          "type": "uint24"
        },
        {
          "name": "city",
          "type": "string"
        },
        {
          "name": "pricePerNight",
          "type": "uint128"
        },
        {
          "name": "deposit",
          "type": "uint128"
        }
      ],
      "payable": false,
      "stateMutability": "view",
      "type": "function"
    },
    {
      "anonymous": false,
      "inputs": [
        {
          "indexed": true,
          "name": "apartmentId",
          "type": "uint256"
        },
        {
          "components": [
            {
              "components": [
                {
                  "components": [
                    {
                      "name": "addr",
                      "type": "address"
                    },
                    {
                      "name": "name",
                      "type": "string"
                    },
                    {
                      "name": "balance",
                      "type": "uint256"
                    }
                  ],
                  "name": "owner",
                  "type": "tuple"
                },
                {
                  "name": "name",
                  "type": "string"
                },
                {
                  "name": "street",
                  "type": "string"
                },
                {
                  "name": "zip",
                  "type": "uint24"
                },
                {
                  "name": "city",
                  "type": "string"
                },
                {
                  "name": "pricePerNight",
                  "type": "uint128"
                },
                {
                  "name": "deposit",
                  "type": "uint128"
                }
              ],
              "name": "apartment",
              "type": "tuple"
            },
            {
              "components": [
                {
                  "name": "addr",
                  "type": "address"
                },
                {
                  "name": "name",
                  "type": "string"
                },
                {
                  "name": "balance",
                  "type": "uint256"
                }
              ],
              "name": "tenant",
              "type": "tuple"
            },
            {
              "name": "fromDay",
              "type": "uint16"
            },
            {
              "name": "tillDay",
              "type": "uint16"
            },
            {
              "name": "deposit",
              "type": "uint128"
            }
          ],
          "indexed": false,
          "name": "rental",
          "type": "tuple"
        }
      ],
      "name": "Rented",
      "type": "event"
    },
    {
      "anonymous": false,
      "inputs": [
        {
          "indexed": true,
          "name": "tenantAddress",
          "type": "address"
        }
      ],
      "name": "Registered",
      "type": "event"
    },
    {
      "constant": true,
      "inputs": [],
      "name": "getTenantBalance",
      "outputs": [
        {
          "name": "",
          "type": "uint256"
        }
      ],
      "payable": false,
      "stateMutability": "view",
      "type": "function"
    },
    {
      "constant": true,
      "inputs": [],
      "name": "getApartments",
      "outputs": [
        {
          "components": [
            {
              "components": [
                {
                  "name": "addr",
                  "type": "address"
                },
                {
                  "name": "name",
                  "type": "string"
                },
                {
                  "name": "balance",
                  "type": "uint256"
                }
              ],
              "name": "owner",
              "type": "tuple"
            },
            {
              "name": "name",
              "type": "string"
            },
            {
              "name": "street",
              "type": "string"
            },
            {
              "name": "zip",
              "type": "uint24"
            },
            {
              "name": "city",
              "type": "string"
            },
            {
              "name": "pricePerNight",
              "type": "uint128"
            },
            {
              "name": "deposit",
              "type": "uint128"
            }
          ],
          "name": "",
          "type": "tuple[]"
        }
      ],
      "payable": false,
      "stateMutability": "view",
      "type": "function"
    },
    {
      "constant": true,
      "inputs": [
        {
          "name": "apartmentId",
          "type": "uint256"
        }
      ],
      "name": "getRentals",
      "outputs": [
        {
          "components": [
            {
              "components": [
                {
                  "components": [
                    {
                      "name": "addr",
                      "type": "address"
                    },
                    {
                      "name": "name",
                      "type": "string"
                    },
                    {
                      "name": "balance",
                      "type": "uint256"
                    }
                  ],
                  "name": "owner",
                  "type": "tuple"
                },
                {
                  "name": "name",
                  "type": "string"
                },
                {
                  "name": "street",
                  "type": "string"
                },
                {
                  "name": "zip",
                  "type": "uint24"
                },
                {
                  "name": "city",
                  "type": "string"
                },
                {
                  "name": "pricePerNight",
                  "type": "uint128"
                },
                {
                  "name": "deposit",
                  "type": "uint128"
                }
              ],
              "name": "apartment",
              "type": "tuple"
            },
            {
              "components": [
                {
                  "name": "addr",
                  "type": "address"
                },
                {
                  "name": "name",
                  "type": "string"
                },
                {
                  "name": "balance",
                  "type": "uint256"
                }
              ],
              "name": "tenant",
              "type": "tuple"
            },
            {
              "name": "fromDay",
              "type": "uint16"
            },
            {
              "name": "tillDay",
              "type": "uint16"
            },
            {
              "name": "deposit",
              "type": "uint128"
            }
          ],
          "name": "",
          "type": "tuple[]"
        }
      ],
      "payable": false,
      "stateMutability": "view",
      "type": "function"
    },
    {
      "constant": false,
      "inputs": [
        {
          "name": "name",
          "type": "string"
        }
      ],
      "name": "registerTenant",
      "outputs": [],
      "payable": true,
      "stateMutability": "payable",
      "type": "function"
    },
    {
      "constant": false,
      "inputs": [
        {
          "name": "apartmentId",
          "type": "uint256"
        },
        {
          "name": "fromDay",
          "type": "uint16"
        },
        {
          "name": "tillDay",
          "type": "uint16"
        }
      ],
      "name": "rent",
      "outputs": [],
      "payable": true,
      "stateMutability": "payable",
      "type": "function"
    },
    {
      "constant": true,
      "inputs": [
        {
          "name": "apartmentIndex",
          "type": "uint256"
        },
        {
          "name": "fromDay",
          "type": "uint16"
        },
        {
          "name": "tillDay",
          "type": "uint16"
        }
      ],
      "name": "isAvailable",
      "outputs": [
        {
          "name": "",
          "type": "bool"
        }
      ],
      "payable": false,
      "stateMutability": "view",
      "type": "function"
    }
  ],
  "bytecode": "0x608060405234801561001057600080fd5b50612d1e806100206000396000f300608060405260043610610083576000357c0100000000000000000000000000000000000000000000000000000000900463ffffffff168063147daad3146100885780638d6b621d146100c5578063abb8be17146100f0578063b1c9809914610133578063cb8f5fe51461015e578063ce75d0731461017a578063d496498f14610196575b600080fd5b34801561009457600080fd5b506100af60048036036100aa919081019061262f565b6101d3565b6040516100bc9190612a79565b60405180910390f35b3480156100d157600080fd5b506100da6108ad565b6040516100e79190612b41565b60405180910390f35b3480156100fc57600080fd5b5061011760048036036101129190810190612606565b61097c565b60405161012a9796959493929190612ab6565b60405180910390f35b34801561013f57600080fd5b50610148610ce9565b6040516101559190612a35565b60405180910390f35b6101786004803603610173919081019061262f565b6110fd565b005b610194600480360361018f91908101906125c5565b611be3565b005b3480156101a257600080fd5b506101bd60048036036101b89190810190612606565b611d90565b6040516101ca9190612a57565b60405180910390f35b60006060600080866001805490501115156101ed57600080fd5b60026000888152602001908152602001600020805480602002602001604051908101604052809291908181526020016000905b828210156107bd57838290600052602060002090600c020160a060405190810160405290816000820160e0604051908101604052908160008201606060405190810160405290816000820160009054906101000a900473ffffffffffffffffffffffffffffffffffffffff1673ffffffffffffffffffffffffffffffffffffffff1673ffffffffffffffffffffffffffffffffffffffff168152602001600182018054600181600116156101000203166002900480601f0160208091040260200160405190810160405280929190818152602001828054600181600116156101000203166002900480156103555780601f1061032a57610100808354040283529160200191610355565b820191906000526020600020905b81548152906001019060200180831161033857829003601f168201915b505050505081526020016002820154815250508152602001600382018054600181600116156101000203166002900480601f0160208091040260200160405190810160405280929190818152602001828054600181600116156101000203166002900480156104055780601f106103da57610100808354040283529160200191610405565b820191906000526020600020905b8154815290600101906020018083116103e857829003601f168201915b50505050508152602001600482018054600181600116156101000203166002900480601f0160208091040260200160405190810160405280929190818152602001828054600181600116156101000203166002900480156104a75780601f1061047c576101008083540402835291602001916104a7565b820191906000526020600020905b81548152906001019060200180831161048a57829003601f168201915b505050505081526020016005820160009054906101000a900462ffffff1662ffffff1662ffffff168152602001600682018054600181600116156101000203166002900480601f01602080910402602001604051908101604052809291908181526020018280546001816001161561010002031660029004801561056c5780601f106105415761010080835404028352916020019161056c565b820191906000526020600020905b81548152906001019060200180831161054f57829003601f168201915b505050505081526020016007820160009054906101000a90046fffffffffffffffffffffffffffffffff166fffffffffffffffffffffffffffffffff166fffffffffffffffffffffffffffffffff1681526020016007820160109054906101000a90046fffffffffffffffffffffffffffffffff166fffffffffffffffffffffffffffffffff166fffffffffffffffffffffffffffffffff1681525050815260200160088201606060405190810160405290816000820160009054906101000a900473ffffffffffffffffffffffffffffffffffffffff1673ffffffffffffffffffffffffffffffffffffffff1673ffffffffffffffffffffffffffffffffffffffff168152602001600182018054600181600116156101000203166002900480601f01602080910402602001604051908101604052809291908181526020018280546001816001161561010002031660029004801561070d5780601f106106e25761010080835404028352916020019161070d565b820191906000526020600020905b8154815290600101906020018083116106f057829003601f168201915b505050505081526020016002820154815250508152602001600b820160009054906101000a900461ffff1661ffff1661ffff168152602001600b820160029054906101000a900461ffff1661ffff1661ffff168152602001600b820160049054906101000a90046fffffffffffffffffffffffffffffffff166fffffffffffffffffffffffffffffffff166fffffffffffffffffffffffffffffffff168152505081526020019060010190610220565b50505050925082519150600090505b8181101561089e578561ffff1683828151811015156107e757fe5b906020019060200201516040015161ffff1610801561082857508561ffff16838281518110151561081457fe5b906020019060200201516060015161ffff16115b8061088357508461ffff16838281518110151561084157fe5b906020019060200201516040015161ffff1610801561088257508461ffff16838281518110151561086e57fe5b906020019060200201516060015161ffff16115b5b1561089157600093506108a3565b80806001019150506107cc565b600193505b5050509392505050565b6000806000803373ffffffffffffffffffffffffffffffffffffffff1673ffffffffffffffffffffffffffffffffffffffff16815260200190815260200160002060000160009054906101000a900473ffffffffffffffffffffffffffffffffffffffff1673ffffffffffffffffffffffffffffffffffffffff161415151561093557600080fd5b6000803373ffffffffffffffffffffffffffffffffffffffff1673ffffffffffffffffffffffffffffffffffffffff16815260200190815260200160002060020154905090565b60018181548110151561098b57fe5b906000526020600020906008020160009150905080600001606060405190810160405290816000820160009054906101000a900473ffffffffffffffffffffffffffffffffffffffff1673ffffffffffffffffffffffffffffffffffffffff1673ffffffffffffffffffffffffffffffffffffffff168152602001600182018054600181600116156101000203166002900480601f016020809104026020016040519081016040528092919081815260200182805460018160011615610100020316600290048015610a9e5780601f10610a7357610100808354040283529160200191610a9e565b820191906000526020600020905b815481529060010190602001808311610a8157829003601f168201915b5050505050815260200160028201548152505090806003018054600181600116156101000203166002900480601f016020809104026020016040519081016040528092919081815260200182805460018160011615610100020316600290048015610b4a5780601f10610b1f57610100808354040283529160200191610b4a565b820191906000526020600020905b815481529060010190602001808311610b2d57829003601f168201915b505050505090806004018054600181600116156101000203166002900480601f016020809104026020016040519081016040528092919081815260200182805460018160011615610100020316600290048015610be85780601f10610bbd57610100808354040283529160200191610be8565b820191906000526020600020905b815481529060010190602001808311610bcb57829003601f168201915b5050505050908060050160009054906101000a900462ffffff1690806006018054600181600116156101000203166002900480601f016020809104026020016040519081016040528092919081815260200182805460018160011615610100020316600290048015610c9b5780601f10610c7057610100808354040283529160200191610c9b565b820191906000526020600020905b815481529060010190602001808311610c7e57829003601f168201915b5050505050908060070160009054906101000a90046fffffffffffffffffffffffffffffffff16908060070160109054906101000a90046fffffffffffffffffffffffffffffffff16905087565b60606001805480602002602001604051908101604052809291908181526020016000905b828210156110f4578382906000526020600020906008020160e0604051908101604052908160008201606060405190810160405290816000820160009054906101000a900473ffffffffffffffffffffffffffffffffffffffff1673ffffffffffffffffffffffffffffffffffffffff1673ffffffffffffffffffffffffffffffffffffffff168152602001600182018054600181600116156101000203166002900480601f016020809104026020016040519081016040528092919081815260200182805460018160011615610100020316600290048015610e315780601f10610e0657610100808354040283529160200191610e31565b820191906000526020600020905b815481529060010190602001808311610e1457829003601f168201915b505050505081526020016002820154815250508152602001600382018054600181600116156101000203166002900480601f016020809104026020016040519081016040528092919081815260200182805460018160011615610100020316600290048015610ee15780601f10610eb657610100808354040283529160200191610ee1565b820191906000526020600020905b815481529060010190602001808311610ec457829003601f168201915b50505050508152602001600482018054600181600116156101000203166002900480601f016020809104026020016040519081016040528092919081815260200182805460018160011615610100020316600290048015610f835780601f10610f5857610100808354040283529160200191610f83565b820191906000526020600020905b815481529060010190602001808311610f6657829003601f168201915b505050505081526020016005820160009054906101000a900462ffffff1662ffffff1662ffffff168152602001600682018054600181600116156101000203166002900480601f0160208091040260200160405190810160405280929190818152602001828054600181600116156101000203166002900480156110485780601f1061101d57610100808354040283529160200191611048565b820191906000526020600020905b81548152906001019060200180831161102b57829003601f168201915b505050505081526020016007820160009054906101000a90046fffffffffffffffffffffffffffffffff166fffffffffffffffffffffffffffffffff166fffffffffffffffffffffffffffffffff1681526020016007820160109054906101000a90046fffffffffffffffffffffffffffffffff166fffffffffffffffffffffffffffffffff166fffffffffffffffffffffffffffffffff168152505081526020019060010190610d0d565b50505050905090565b60008061110861236d565b60008060003373ffffffffffffffffffffffffffffffffffffffff1673ffffffffffffffffffffffffffffffffffffffff16815260200190815260200160002060000160009054906101000a900473ffffffffffffffffffffffffffffffffffffffff1673ffffffffffffffffffffffffffffffffffffffff161415151561118f57600080fd5b60003411156111e857346000803373ffffffffffffffffffffffffffffffffffffffff1673ffffffffffffffffffffffffffffffffffffffff168152602001908152602001600020600201600082825401925050819055505b8461ffff168461ffff161115156111fe57600080fd5b6112098686866101d3565b151561121457600080fd5b60018681548110151561122357fe5b9060005260206000209060080201925084840361ffff168360070160009054906101000a90046fffffffffffffffffffffffffffffffff16026fffffffffffffffffffffffffffffffff1691508260070160109054906101000a90046fffffffffffffffffffffffffffffffff166fffffffffffffffffffffffffffffffff1682016000803373ffffffffffffffffffffffffffffffffffffffff1673ffffffffffffffffffffffffffffffffffffffff168152602001908152602001600020600201541115156112f357600080fd5b60a0604051908101604052808460e0604051908101604052908160008201606060405190810160405290816000820160009054906101000a900473ffffffffffffffffffffffffffffffffffffffff1673ffffffffffffffffffffffffffffffffffffffff1673ffffffffffffffffffffffffffffffffffffffff168152602001600182018054600181600116156101000203166002900480601f01602080910402602001604051908101604052809291908181526020018280546001816001161561010002031660029004801561140c5780601f106113e15761010080835404028352916020019161140c565b820191906000526020600020905b8154815290600101906020018083116113ef57829003601f168201915b505050505081526020016002820154815250508152602001600382018054600181600116156101000203166002900480601f0160208091040260200160405190810160405280929190818152602001828054600181600116156101000203166002900480156114bc5780601f10611491576101008083540402835291602001916114bc565b820191906000526020600020905b81548152906001019060200180831161149f57829003601f168201915b50505050508152602001600482018054600181600116156101000203166002900480601f01602080910402602001604051908101604052809291908181526020018280546001816001161561010002031660029004801561155e5780601f106115335761010080835404028352916020019161155e565b820191906000526020600020905b81548152906001019060200180831161154157829003601f168201915b505050505081526020016005820160009054906101000a900462ffffff1662ffffff1662ffffff168152602001600682018054600181600116156101000203166002900480601f0160208091040260200160405190810160405280929190818152602001828054600181600116156101000203166002900480156116235780601f106115f857610100808354040283529160200191611623565b820191906000526020600020905b81548152906001019060200180831161160657829003601f168201915b505050505081526020016007820160009054906101000a90046fffffffffffffffffffffffffffffffff166fffffffffffffffffffffffffffffffff166fffffffffffffffffffffffffffffffff1681526020016007820160109054906101000a90046fffffffffffffffffffffffffffffffff166fffffffffffffffffffffffffffffffff166fffffffffffffffffffffffffffffffff168152505081526020016000803373ffffffffffffffffffffffffffffffffffffffff1673ffffffffffffffffffffffffffffffffffffffff168152602001908152602001600020606060405190810160405290816000820160009054906101000a900473ffffffffffffffffffffffffffffffffffffffff1673ffffffffffffffffffffffffffffffffffffffff1673ffffffffffffffffffffffffffffffffffffffff168152602001600182018054600181600116156101000203166002900480601f0160208091040260200160405190810160405280929190818152602001828054600181600116156101000203166002900480156117fe5780601f106117d3576101008083540402835291602001916117fe565b820191906000526020600020905b8154815290600101906020018083116117e157829003601f168201915b5050505050815260200160028201548152505081526020018661ffff1681526020018561ffff1681526020018460070160109054906101000a90046fffffffffffffffffffffffffffffffff166fffffffffffffffffffffffffffffffff16815250905060026000878152602001908152602001600020819080600181540180825580915050906001820390600052602060002090600c02016000909192909190915060008201518160000160008201518160000160008201518160000160006101000a81548173ffffffffffffffffffffffffffffffffffffffff021916908373ffffffffffffffffffffffffffffffffffffffff16021790555060208201518160010190805190602001906119169291906123c4565b50604082015181600201555050602082015181600301908051906020019061193f9291906123c4565b50604082015181600401908051906020019061195c9291906123c4565b5060608201518160050160006101000a81548162ffffff021916908362ffffff160217905550608082015181600601908051906020019061199e9291906123c4565b5060a08201518160070160006101000a8154816fffffffffffffffffffffffffffffffff02191690836fffffffffffffffffffffffffffffffff16021790555060c08201518160070160106101000a8154816fffffffffffffffffffffffffffffffff02191690836fffffffffffffffffffffffffffffffff160217905550505060208201518160080160008201518160000160006101000a81548173ffffffffffffffffffffffffffffffffffffffff021916908373ffffffffffffffffffffffffffffffffffffffff1602179055506020820151816001019080519060200190611a8b9291906123c4565b50604082015181600201555050604082015181600b0160006101000a81548161ffff021916908361ffff160217905550606082015181600b0160026101000a81548161ffff021916908361ffff160217905550608082015181600b0160046101000a8154816fffffffffffffffffffffffffffffffff02191690836fffffffffffffffffffffffffffffffff1602179055505050508260070160109054906101000a90046fffffffffffffffffffffffffffffffff166fffffffffffffffffffffffffffffffff1682016000803373ffffffffffffffffffffffffffffffffffffffff1673ffffffffffffffffffffffffffffffffffffffff16815260200190815260200160002060020160008282540392505081905550857f3dec7dea75ea8884ae3b9406d30ba037737cae8de38632a88bfbf21fa542696482604051611bd39190612a94565b60405180910390a2505050505050565b60008060003373ffffffffffffffffffffffffffffffffffffffff1673ffffffffffffffffffffffffffffffffffffffff16815260200190815260200160002060000160009054906101000a900473ffffffffffffffffffffffffffffffffffffffff1673ffffffffffffffffffffffffffffffffffffffff16141515611c6957600080fd5b6060604051908101604052803373ffffffffffffffffffffffffffffffffffffffff168152602001828152602001348152506000803373ffffffffffffffffffffffffffffffffffffffff1673ffffffffffffffffffffffffffffffffffffffff16815260200190815260200160002060008201518160000160006101000a81548173ffffffffffffffffffffffffffffffffffffffff021916908373ffffffffffffffffffffffffffffffffffffffff1602179055506020820151816001019080519060200190611d3c9291906123c4565b50604082015181600201559050503373ffffffffffffffffffffffffffffffffffffffff167f2d3734a8e47ac8316e500ac231c90a6e1848ca2285f40d07eaa52005e4b3a0e960405160405180910390a250565b606060026000838152602001908152602001600020805480602002602001604051908101604052809291908181526020016000905b8282101561236257838290600052602060002090600c020160a060405190810160405290816000820160e0604051908101604052908160008201606060405190810160405290816000820160009054906101000a900473ffffffffffffffffffffffffffffffffffffffff1673ffffffffffffffffffffffffffffffffffffffff1673ffffffffffffffffffffffffffffffffffffffff168152602001600182018054600181600116156101000203166002900480601f016020809104026020016040519081016040528092919081815260200182805460018160011615610100020316600290048015611efa5780601f10611ecf57610100808354040283529160200191611efa565b820191906000526020600020905b815481529060010190602001808311611edd57829003601f168201915b505050505081526020016002820154815250508152602001600382018054600181600116156101000203166002900480601f016020809104026020016040519081016040528092919081815260200182805460018160011615610100020316600290048015611faa5780601f10611f7f57610100808354040283529160200191611faa565b820191906000526020600020905b815481529060010190602001808311611f8d57829003601f168201915b50505050508152602001600482018054600181600116156101000203166002900480601f01602080910402602001604051908101604052809291908181526020018280546001816001161561010002031660029004801561204c5780601f106120215761010080835404028352916020019161204c565b820191906000526020600020905b81548152906001019060200180831161202f57829003601f168201915b505050505081526020016005820160009054906101000a900462ffffff1662ffffff1662ffffff168152602001600682018054600181600116156101000203166002900480601f0160208091040260200160405190810160405280929190818152602001828054600181600116156101000203166002900480156121115780601f106120e657610100808354040283529160200191612111565b820191906000526020600020905b8154815290600101906020018083116120f457829003601f168201915b505050505081526020016007820160009054906101000a90046fffffffffffffffffffffffffffffffff166fffffffffffffffffffffffffffffffff166fffffffffffffffffffffffffffffffff1681526020016007820160109054906101000a90046fffffffffffffffffffffffffffffffff166fffffffffffffffffffffffffffffffff166fffffffffffffffffffffffffffffffff1681525050815260200160088201606060405190810160405290816000820160009054906101000a900473ffffffffffffffffffffffffffffffffffffffff1673ffffffffffffffffffffffffffffffffffffffff1673ffffffffffffffffffffffffffffffffffffffff168152602001600182018054600181600116156101000203166002900480601f0160208091040260200160405190810160405280929190818152602001828054600181600116156101000203166002900480156122b25780601f10612287576101008083540402835291602001916122b2565b820191906000526020600020905b81548152906001019060200180831161229557829003601f168201915b505050505081526020016002820154815250508152602001600b820160009054906101000a900461ffff1661ffff1661ffff168152602001600b820160029054906101000a900461ffff1661ffff1661ffff168152602001600b820160049054906101000a90046fffffffffffffffffffffffffffffffff166fffffffffffffffffffffffffffffffff166fffffffffffffffffffffffffffffffff168152505081526020019060010190611dc5565b505050509050919050565b6101e060405190810160405280612382612444565b815260200161238f6124b2565b8152602001600061ffff168152602001600061ffff16815260200160006fffffffffffffffffffffffffffffffff1681525090565b828054600181600116156101000203166002900490600052602060002090601f016020900481019282601f1061240557805160ff1916838001178555612433565b82800160010185558215612433579182015b82811115612432578251825591602001919060010190612417565b5b50905061244091906124ea565b5090565b6101206040519081016040528061245961250f565b81526020016060815260200160608152602001600062ffffff1681526020016060815260200160006fffffffffffffffffffffffffffffffff16815260200160006fffffffffffffffffffffffffffffffff1681525090565b606060405190810160405280600073ffffffffffffffffffffffffffffffffffffffff16815260200160608152602001600081525090565b61250c91905b808211156125085760008160009055506001016124f0565b5090565b90565b606060405190810160405280600073ffffffffffffffffffffffffffffffffffffffff16815260200160608152602001600081525090565b600082601f830112151561255a57600080fd5b813561256d61256882612b89565b612b5c565b9150808252602083016020830185838301111561258957600080fd5b612594838284612c91565b50505092915050565b60006125a98235612c79565b905092915050565b60006125bd8235612c87565b905092915050565b6000602082840312156125d757600080fd5b600082013567ffffffffffffffff8111156125f157600080fd5b6125fd84828501612547565b91505092915050565b60006020828403121561261857600080fd5b6000612626848285016125b1565b91505092915050565b60008060006060848603121561264457600080fd5b6000612652868287016125b1565b93505060206126638682870161259d565b92505060406126748682870161259d565b9150509250925092565b61268781612c0a565b82525050565b600061269882612bcf565b808452602084019350836020820285016126b185612bb5565b60005b848110156126ea5783830388526126cc8383516127ae565b92506126d782612bf0565b91506020880197506001810190506126b4565b508196508694505050505092915050565b600061270682612bda565b8084526020840193508360208202850161271f85612bc2565b60005b8481101561275857838303885261273a8383516128dc565b925061274582612bfd565b9150602088019750600181019050612722565b508196508694505050505092915050565b61277281612c2a565b82525050565b600061278382612be5565b808452612797816020860160208601612ca0565b6127a081612cd3565b602085010191505092915050565b600060e08301600083015184820360008601526127cb8282612959565b915050602083015184820360208601526127e58282612778565b915050604083015184820360408601526127ff8282612778565b91505060608301516128146060860182612a17565b506080830151848203608086015261282c8282612778565b91505060a083015161284160a08601826129f9565b5060c083015161285460c08601826129f9565b508091505092915050565b600060a083016000830151848203600086015261287c82826127ae565b9150506020830151848203602086015261289682826129a9565b91505060408301516128ab6040860182612a08565b5060608301516128be6060860182612a08565b5060808301516128d160808601826129f9565b508091505092915050565b600060a08301600083015184820360008601526128f982826127ae565b9150506020830151848203602086015261291382826129a9565b91505060408301516129286040860182612a08565b50606083015161293b6060860182612a08565b50608083015161294e60808601826129f9565b508091505092915050565b6000606083016000830151612971600086018261267e565b50602083015184820360208601526129898282612778565b915050604083015161299e6040860182612a26565b508091505092915050565b60006060830160008301516129c1600086018261267e565b50602083015184820360208601526129d98282612778565b91505060408301516129ee6040860182612a26565b508091505092915050565b612a0281612c36565b82525050565b612a1181612c52565b82525050565b612a2081612c60565b82525050565b612a2f81612c6f565b82525050565b60006020820190508181036000830152612a4f818461268d565b905092915050565b60006020820190508181036000830152612a7181846126fb565b905092915050565b6000602082019050612a8e6000830184612769565b92915050565b60006020820190508181036000830152612aae818461285f565b905092915050565b600060e0820190508181036000830152612ad0818a612959565b90508181036020830152612ae48189612778565b90508181036040830152612af88188612778565b9050612b076060830187612a17565b8181036080830152612b198186612778565b9050612b2860a08301856129f9565b612b3560c08301846129f9565b98975050505050505050565b6000602082019050612b566000830184612a26565b92915050565b6000604051905081810181811067ffffffffffffffff82111715612b7f57600080fd5b8060405250919050565b600067ffffffffffffffff821115612ba057600080fd5b601f19601f8301169050602081019050919050565b6000602082019050919050565b6000602082019050919050565b600081519050919050565b600081519050919050565b600081519050919050565b6000602082019050919050565b6000602082019050919050565b600073ffffffffffffffffffffffffffffffffffffffff82169050919050565b60008115159050919050565b60006fffffffffffffffffffffffffffffffff82169050919050565b600061ffff82169050919050565b600062ffffff82169050919050565b6000819050919050565b600061ffff82169050919050565b6000819050919050565b82818337600083830152505050565b60005b83811015612cbe578082015181840152602081019050612ca3565b83811115612ccd576000848401525b50505050565b6000601f19601f83011690509190505600a265627a7a7230582015a855f588983e06c97c344ab0536c9d76b9da510cc23c9b53b2c3b8e211b67e6c6578706572696d656e74616cf50037",
  "source": "pragma solidity ^0.4.22;\npragma experimental ABIEncoderV2;\n\nimport \"./Library.sol\";\n\ncontract Rent {\n    struct Tenant {\n        address addr;\n        string name;\n        uint balance;\n    }\n\n    struct Renter {\n        address addr;\n        string name;\n        uint balance;\n    }\n\n    struct Apartment {\n        Renter owner;\n\n        string name;\n        string street;\n        uint24 zip;\n        string city;\n\n        uint128 pricePerNight;\n        uint128 deposit;\n    }\n\n    struct Rental {\n        Apartment apartment;\n        Tenant tenant;\n        uint16 fromDay; // Day as flat(unix timestamp / (60*60*24))\n        uint16 tillDay;\n        uint128 deposit;\n    }\n\n    mapping(address => Tenant) tenants;\n\n    Apartment[] public apartments;\n\n    // Mapping of apartment id (index) to rentals\n    mapping(uint => Rental[]) rentals;\n\n    event Rented(uint indexed apartmentId, Rental rental);\n    event Registered(address indexed tenantAddress);\n\n    function getTenantBalance() public view returns (uint) {\n        require(tenants[msg.sender].addr != 0);\n\n        return tenants[msg.sender].balance;\n    }\n\n    function getApartments() public view returns (Apartment[]) {\n        return apartments;\n    }\n\n    function getRentals(uint apartmentId) public view returns (Rental[]) {\n        return rentals[apartmentId];\n    }\n\n    function registerTenant(string name) public payable {\n        require(tenants[msg.sender].addr == 0);\n\n        tenants[msg.sender] = Tenant(msg.sender, name, msg.value);\n\n        emit Registered(msg.sender);\n    }\n\n    function rent(uint apartmentId, uint16 fromDay, uint16 tillDay) public payable {\n        require(tenants[msg.sender].addr != 0);\n\n        if (msg.value > 0) {\n            tenants[msg.sender].balance += msg.value;\n        }\n\n        // Forbid same-day rentals and rentals that are mixed up (start day after end day)\n        require(tillDay > fromDay);\n\n        // Check if the apartment is occupied\n        require(isAvailable(apartmentId, fromDay, tillDay));\n\n        Apartment storage apartment = apartments[apartmentId];\n\n        // Calculate the fee from the pricePerNight\n        uint rentalFee = apartment.pricePerNight * (tillDay - fromDay);\n\n        // Check if the tenant has enough balance to pay for the apartment rental and the deposit\n        require(tenants[msg.sender].balance > rentalFee + apartment.deposit);\n\n        // Add a new rental\n        Rental memory rental = Rental(apartment, tenants[msg.sender], fromDay, tillDay, apartment.deposit);\n        rentals[apartmentId].push(rental);\n\n        // Reduce the tenants balance by deposit and rental fee\n        tenants[msg.sender].balance -= rentalFee + apartment.deposit;\n\n        emit Rented(apartmentId, rental);\n    }\n\n    function isAvailable(uint apartmentIndex, uint16 fromDay, uint16 tillDay) public view returns (bool) {\n        require(apartments.length > apartmentIndex);\n\n        // TODO: Check if apartment was deleted\n\n        Rental[] memory apartmentRentals = rentals[apartmentIndex];\n\n        uint numRentals = apartmentRentals.length;\n\n        // Check all rentals for the apartment\n        for (uint i = 0; i < numRentals; i ++) {\n            if (\n            // Check if the rental ends in the requested period\n                apartmentRentals[i].fromDay < fromDay && apartmentRentals[i].tillDay > fromDay ||\n\n                // Check if the rental starts in the requested period\n                apartmentRentals[i].fromDay < tillDay && apartmentRentals[i].tillDay > tillDay\n            ) {\n                return false;\n            }\n        }\n\n        return true;\n    }\n}\n",
  "sourcePath": "/Users/denniswestphal/rental/contracts/Rent.sol",
  "compiler": {
    "name": "solc",
    "version": "0.4.23+commit.124ca40d.Emscripten.clang"
  },
  "schemaVersion": "2.0.0",
  "updatedAt": "2018-05-30T15:27:26.062Z"
}